:020000040000FA
:100000000C94DF000C9407010C9407010C94070179
:100010000C9407010C9407010C9407010C94070140
:100020000C9407010C9407010C9407010C94070130
:100030000C9407010C9407010C9407010C94070120
:100040000C9474060C9407010C9442060C941C0644
:100050000C9407010C9407010C9407010C94070100
:100060000C9407010C94070100407A10F35A00A089
:10007000724E18090010A5D4E80000E87648170071
:1000800000E40B54020000CA9A3B000000E1F505B1
:10009000000080969800000040420F000000A086FB
:1000A00001000000102700000000E803000000002D
:1000B0006400000000000A000000000001000000D1
:1000C00000002C76D888DC674F0823DFC1DFAE59EB
:1000D000E1B1B796E5E3E453C63AE651997696E87E
:1000E000E6C28426EB898C9B62ED407C6FFCEFBC02
:1000F0009C9F40F2BAA56FA5F490055A2AF75C932D
:100100006B6CF9676DC11BFCE0E40D47FEF520E662
:10011000B500D0ED902E0300943577050080841E45
:10012000080000204E0A000000C80C333333330FA0
:10013000986E12831141EF8D2114893BE65516CF3D
:10014000FEE6DB18D1844B381BF77C1D901DA4BB49
:10015000E424203284725E228100C9F124ECA1E5FE
:100160003D2700000000240027002A0000000000B6
:10017000250028002B000000000023002600290095
:10018000040404040404040402020202020203033D
:100190000303030301020408102040800102040845
:1001A00010200102040810200000000800020100D5
:1001B00000030407000000000000000003071124F2
:1001C0001FBECFEFD8E0DEBFCDBF11E0A0E0B1E0B1
:1001D000E0EFFFE102C005900D92A236B107D9F71A
:1001E00022E0A2E6B1E001C01D92A133B207E1F71F
:1001F00010E0CFEDD0E004C02197FE010E94FE0D7B
:10020000CE3DD107C9F70E944D070C94F60F0C9410
:100210000000DB0114964D915C9115976D917C91D6
:10022000DC01ED91FC910280F381E02D0994AF9205
:10023000BF92CF92DF92EF92FF920F931F93CF93D3
:10024000DF936C017B018B01040F151FEB015E0135
:10025000AE18BF08C017D10759F06991D601ED91CA
:10026000FC910190F081E02DC6010995892B79F769
:10027000C501DF91CF911F910F91FF90EF90DF901B
:10028000CF90BF90AF900895FC01538D448D252FE2
:1002900030E0842F90E0821B930B541710F0CF9620
:1002A000089501970895FC01918D828D981761F052
:1002B000A28DAE0FBF2FB11D5D968C91928D9F5F69
:1002C0009F73928F90E008958FEF9FEF0895FC0148
:1002D000918D828D981731F0828DE80FF11D858DFB
:1002E00090E008958FEF9FEF0895FC01918D228D8E
:1002F000892F90E0805C9F4F821B91098F73992713
:10030000089588E791E00E94750121E0892B09F4A6
:1003100020E0822F089580E090E0892B29F00E9450
:10032000810181110C9400000895FC01A48DA80F97
:10033000B92FB11DA35ABF4F2C91848D90E0019627
:100340008F739927848FA689B7892C93A089B18947
:100350008C91837080648C93938D848D981306C0E8
:100360000288F389E02D80818F7D80830895EF924C
:10037000FF920F931F93CF93DF93EC0181E0888F5F
:100380009B8D8C8D98131AC0E889F989808185FF2F
:1003900015C09FB7F894EE89FF896083E889F989D1
:1003A00080818370806480839FBF81E090E0DF91D3
:1003B000CF911F910F91FF90EF900895F62E0B8D26
:1003C00010E00F5F1F4F0F731127E02E8C8D8E11E1
:1003D0000CC00FB607FCFACFE889F989808185FF48
:1003E000F5CFCE010E949501F1CFEB8DEC0FFD2FE3
:1003F000F11DE35AFF4FF0829FB7F8940B8FEA8903
:10040000FB8980818062CFCFCF93DF93EC01888D11
:100410008823B9F0AA89BB89E889F9898C9185FD7F
:1004200003C0808186FD0DC00FB607FCF7CF8C910D
:1004300085FFF2CF808185FFEDCFCE010E9495012F
:10044000E9CFDF91CF910895833081F028F4813096
:1004500099F08230A9F008958730A9F08830C9F06A
:100460008430B1F4809180008F7D03C08091800042
:100470008F7780938000089584B58F7784BD089529
:1004800084B58F7DFBCF8091B0008F778093B000D3
:1004900008958091B0008F7DF9CFCF93DF93E0EB8B
:1004A000F1E08491ECE9F1E0D491E8E8F1E0C49165
:1004B000CC23A1F081110E942402EC2FF0E0EE0F7A
:1004C000FF1FEA58FE4FA591B491EC91ED2381E016
:1004D00090E009F480E0DF91CF91089580E090E012
:1004E000FACF1F93CF93DF93282F30E0F901E8551F
:1004F000FE4F8491F901EC56FE4FD491F901E0587A
:10050000FE4FC491CC23A9F0162F81110E94240222
:10051000EC2FF0E0EE0FFF1FE459FE4FA591B491D0
:100520008FB7F894EC91111108C0D095DE23DC93BD
:100530008FBFDF91CF911F910895DE2BF8CFCF931E
:10054000DF9390E0FC01EC56FE4F249180589E4FC3
:10055000FC0184918823D1F090E0880F991FFC0161
:10056000EE59FE4FA591B491FC01E459FE4FC5919F
:10057000D49161110EC09FB7F8948C91E22FE09551
:100580008E238C932881E223E8839FBFDF91CF9154
:1005900008958FB7F894EC91E22BEC938FBFF6CFD0
:1005A0008E3008F08E508770806480937C0080913C
:1005B0007A00806480937A0080917A0086FDFCCF77
:1005C000809178009091790008953FB7F8948091D8
:1005D000670190916801A0916901B0916A0126B507
:1005E000A89B05C02F3F19F00196A11DB11D3FBF6B
:1005F000BA2FA92F982F8827BC01CD01620F711D3A
:10060000811D911D42E0660F771F881F991F4A9533
:10061000D1F708958F929F92AF92BF92CF92DF92BF
:10062000EF92FF924B015C010E94E5026B017C019D
:100630000E94E5026C197D098E099F09683E73408E
:1006400081059105A8F321E0821A9108A108B1085B
:1006500088EEC80E83E0D81EE11CF11C81149104C1
:10066000A104B10429F7FF90EF90DF90CF90BF90E5
:10067000AF909F908F900895089590E080E0089546
:10068000CF93DF93EC0188819981009711F00E944C
:10069000A00E198218821D821C821B821A82DF9191
:1006A000CF910895FC0180819181009711F00C9405
:1006B000A00E0895CF93DF93EC0160E08E810E943D
:1006C000710261E08E810E94710260E08E810E9461
:1006D00071028BE891E00197F1F7DF91CF910895D6
:1006E000CF92DF92EF92FF920F931F93CF93DF93FE
:1006F0006C017C0187E0E80EF11CD0E0C0E0062F21
:1007000010E0B8010C2E02C0759567950A94E2F7C7
:100710006170F70181917F010E9471022196C430BE
:10072000D10579F7C601DF91CF911F910F91FF900D
:10073000EF90DF90CF900C945A03CF92DF92EF921C
:10074000FF920F931F93CF93DF93EC01F62E642F4C
:100750008C810E9471028D818F3F19F060E00E94B0
:1007600071020F2D10E08F8584FF25C06E0187E098
:10077000C80ED11CF12CE12CB8010E2C02C07595CD
:1007800067950A94E2F76170F60181916F010E940A
:100790007102FFEFEF1AFF0A88E0E816F10461F733
:1007A000CE01DF91CF911F910F91FF90EF90DF90DD
:1007B000CF900C945A03B80184E0759567958A959B
:1007C000E1F7CE010E9470036F2DCE01DF91CF9132
:1007D0001F910F91FF90EF90DF90CF900C947003DA
:1007E00040E0682F85E192E00C949D03CF93DF9366
:1007F000813029F090912402986090932402809394
:1008000028021092290280E480932A0280E18093DA
:100810002B0280E580932C0261E0809119020E94F6
:100820009F0280911A028F3F19F061E00E949F029F
:1008300061E080911B020E949F02C5E1D2E09E010F
:10084000255132408091240284FD0BC084E090E069
:1008500021962817390744F461E08E810E949F0297
:10086000EECF88E090E0F4CF8BE39DE00197F1F7C5
:1008700060E0809119020E94710260E080911B0289
:100880000E94710280911A028F3F19F060E00E946D
:1008900071028091240284FD39C063E085E192E019
:1008A0000E947003CBE4D6E4CE010197F1F763E038
:1008B00085E192E00E9470032197F1F763E085E102
:1008C00092E00E94700383E592E00197F1F762E005
:1008D00085E192E00E9470038091240280620E9470
:1008E000F00384E0809325028CE00E94F00381E015
:1008F0000E94F0038BE39FE10197F1F782E0809380
:10090000260286E0DF91CF910C94F00380620E9472
:10091000F0038BE496E40197F1F780912402806262
:100920000E94F00383E592E00197F1F780912402A1
:1009300080620E94F003D0CF90912802891710F0B6
:100940008FEF890FE82FF0E0EB5EFD4F8489806820
:100950000C94F00341E00E949D0381E090E0089533
:100960000F931F93CF93DF93EC01888199810097B8
:1009700059F02A813B812617370730F081E0DF915B
:10098000CF911F910F9108958B016F5F7F4F0E9450
:10099000290F009759F0998388831B830A832C8140
:1009A0003D81232B59F7FC011082E8CF80E0E7CF8F
:1009B000EF92FF920F931F93CF93DF936115710511
:1009C00041F480E0DF91CF911F910F91FF90EF9064
:1009D000089541155105B1F07B01EC010C811D8199
:1009E000040F151FB8010E94B004882351F3288119
:1009F00039818C819D81B701820F931F0E94EF0F77
:100A00001D830C8381E0DECFCF93DF93EC01FB01EC
:100A100001900020E9F73197AF01461B570B0E9468
:100A2000D804811103C0CE010E944003CE01DF91A2
:100A3000CF910895CF93DF93EC01FB014481558161
:100A4000608171810E94D804811103C0CE010E948F
:100A50004003CE01DF91CF910895EF92FF920F9363
:100A60001F93CF93DF93EC017B018A01BA010E94AF
:100A7000B00481110BC0CE010E944003CE01DF9172
:100A8000CF911F910F91FF90EF9008951D830C83DC
:100A9000B701888199810E94EF0FF0CFEF92FF920A
:100AA0000F931F93CF93DF93CDB7DEB7A1970FB608
:100AB000F894DEBF0FBECDBF7C01CB01BA01F701B8
:100AC0001182108213821282158214828E010F5FAE
:100AD0001F4F22E044E00E94000A0097C9F0FC0189
:100AE00001900020E9F73197AF01481B590BBC0179
:100AF000C7010E942D05A1960FB6F894DEBF0FBE68
:100B0000CDBFDF91CF911F910F91FF90EF9008958E
:100B1000C7010E944003EFCFEF92FF920F931F9304
:100B2000CF93DF93CDB7DEB7A2970FB6F894DEBFB1
:100B30000FBECDBF8C01CB01BA01F801118210822A
:100B400013821282158214822AE0AE014F5F5F4F3A
:100B50007A010E941E0AF70101900020E9F73197FF
:100B6000AF014E195F09B701C8010E942D05A29679
:100B70000FB6F894DEBF0FBECDBFDF91CF911F91AE
:100B80000F91FF90EF900895FC0111821082138263
:100B9000128215821482FB0101900020E9F731973F
:100BA000AF01461B570B0C942D050F931F9360E06C
:100BB0008AE00E94710283E090E00197F1F761E022
:100BC0008AE00E94710283E290E00197F1F760E011
:100BD0008AE00E947102EDE9F1E06491E9E8F1E058
:100BE000E491F0E0EE0FFF1FEA58FE4F85919491DB
:100BF00000E412E42FE030E0462F0E94BE066115AB
:100C000071058105910529F06F5F7F4F8F4F9F4FD1
:100C10009F700E94980C26E933E44BE05DE30E944C
:100C2000D30C20E030E040E05FE30E94D30C0E9450
:100C3000C80D1F910F9108951F920F920FB60F923A
:100C400011242F933F934F935F936F937F938F93D1
:100C50009F93AF93BF93EF93FF9388E791E00E9438
:100C60009501FF91EF91BF91AF919F918F917F91EE
:100C70006F915F914F913F912F910F900FBE0F9009
:100C80001F9018951F920F920FB60F9211242F9359
:100C90008F939F93EF93FF93E0918801F0918901E7
:100CA0008081E0918E01F0918F0182FD1BC09081C7
:100CB000809191018F5F8F7320919201821741F093
:100CC000E0919101F0E0E858FE4F958F80939101FB
:100CD000FF91EF919F918F912F910F900FBE0F90E9
:100CE0001F9018958081F4CF1F920F920FB60F922C
:100CF00011242F933F938F939F93AF93BF93809132
:100D0000630190916401A0916501B09166013091F9
:100D1000620123E0230F2D3758F50196A11DB11D67
:100D2000209362018093630190936401A093650115
:100D3000B09366018091670190916801A09169016B
:100D4000B0916A010196A11DB11D80936701909336
:100D50006801A0936901B0936A01BF91AF919F911F
:100D60008F913F912F910F900FBE0F901F9018956C
:100D700026E8230F0296A11DB11DD2CFCF92DF929C
:100D8000EF92FF920F931F93E82FF92F05C00150A8
:100D900011092109310961F1908196239417B9F362
:100DA00005C0015011092109310911F190819623E3
:100DB0009413F7CFC12CD12CE12CF12C0AC08FEF6A
:100DC000C81AD80AE80AF80A0C151D052E053F05B1
:100DD00079F080818623841791F36C2D7D2D8E2DE3
:100DE0009F2D1F910F91FF90EF90DF90CF9008956E
:100DF00060E070E080E090E01F910F91FF90EF9035
:100E0000DF90CF900895E8E7F1E01382128288EE38
:100E100093E0A0E0B0E084839583A683B7838AE063
:100E200091E09183808385EC90E09587848784ECC2
:100E300090E09787868780EC90E0918B808B81ECA7
:100E400090E0938B828B82EC90E0958B848B86EC88
:100E500090E0978B868B118E128E138E148EE5E1A7
:100E6000F2E0138212828CE191E0918380838CE026
:100E700084838FEF85838BE0868385E0878384E09E
:100E8000808783E0818782E08287138614861586B7
:100E90001686178681E00C94F603CF93DF93CDB7C7
:100EA000DEB7A4970FB6F894DEBF0FBECDBF78941F
:100EB00084B5826084BD84B5816084BD85B582605F
:100EC00085BD85B5816085BD80916E008160809310
:100ED0006E00109281008091810082608093810079
:100EE0008091810081608093810080918000816089
:100EF000809380008091B10084608093B1008091E4
:100F0000B00081608093B00080917A00846080930B
:100F10007A0080917A00826080937A0080917A00D2
:100F2000816080937A0080917A00806880937A0053
:100F30001092C100E0918801F091890182E08083E4
:100F4000E0918401F09185011082E0918601F09199
:100F500087018FEC808310929001E0918C01F091D9
:100F60008D0186E08083E0918A01F0918B01808180
:100F700080618083E0918A01F0918B01808188609B
:100F80008083E0918A01F0918B0180818068808369
:100F9000E0918A01F0918B0180818F7D808360E0F8
:100FA00089E00E949F0261E08AE00E949F028E0118
:100FB000015E1F4F0E94D5056B017C0183E10E94F9
:100FC000D002BC01990F880B990B0E94980C2B0141
:100FD0003C0184E00E94F60380E00E949C04B7017B
:100FE000A601CE0101960E948C0564E271E0CE015B
:100FF00007960E94C405BE016F5F7F4FCE01079622
:101000000E941A0560E371E00E940405BC0185E1BD
:1010100092E00E940901CE0107960E945203CE0180
:1010200001960E94520381E00E949C041092730179
:10103000109274011092750110927601109277014E
:1010400061E088E00E949F0260E088E00E947102F7
:1010500064E170E080E090E00E940A0361E088E0D3
:101060000E9471028BE990E00197F1F760E088E05F
:101070000E949F0261E1E62E67E2F62E0E944D0279
:10108000892B09F022C181E0E81AF108B9F74091F3
:101090006F01509170016091710170917201CE01E8
:1010A00001960E944E0563E371E0CE0107960E940F
:1010B000C405BE016F5F7F4FCE0107960E941A05DF
:1010C0006FE371E00E940405BC0185E192E00E949B
:1010D0000901CE0107960E945203CE0101960E949B
:1010E000520382E00E949C0440916B0150916C017C
:1010F00060916D0170916E01CE0101960E944E05C6
:1011000061E471E0CE0107960E94C405BE016F5FE5
:101110007F4FCE0107960E941A056DE471E00E9490
:101120000405BC0185E192E00E940901CE01079609
:101130000E945203CE0101960E94520383E00E9456
:101140009C04B301A201CE0101960E944E056FE4FA
:1011500071E0CE0107960E94C405BE016F5F7F4F0C
:10116000CE0107960E941A056BE571E00E94040506
:10117000BC0185E192E00E940901CE0107960E9420
:101180005203CE0101960E94520383E10E94D002D5
:10119000BC01990F880B990B0E94980CAB01BC0104
:1011A000CE0101960E944E0540916B0150916C0159
:1011B00060916D0170916E01CE0107960E944E05FF
:1011C00040916F01509170016091710170917201B5
:1011D000CE010D960E944E050E94D505AB01BC01C3
:1011E000CE0149960E948C051C8A1B8A1E8A1D8A84
:1011F000188E1F8A698D7A8D6115710531F04D8DBC
:101200005E8DCE0143960E942D056FE571E0CE0103
:1012100043960E940405BE01635F7F4F0E941A053A
:101220006FE571E00E940405BE01695F7F4F0E9477
:101230001A056FE571E00E940405BE016F5F7F4FE4
:101240000E941A0518A21F8E1AA219A21CA21BA284
:101250008017910759F0FC0160817181611571055A
:1012600029F044815581C8010E942D05CE01439685
:101270000E945203CE0149960E945203CE010D9660
:101280000E945203CE0107960E945203CE0101969E
:101290000E945203B80188E791E00E940901C80149
:1012A0000E94520360ED77E080E090E00E940A0324
:1012B00080E090E0892B09F47DCE0E948101882393
:1012C00009F478CE0E94000075CE51E1E52E57E278
:1012D000F52E0E944D02019729F491E0E91AF108D8
:1012E000C1F7D5CE38E2E32EF12C47E0342E212C85
:1012F00021E1C22E27E2D22E0E944D02892B29F431
:10130000E1E0CE1AD108C1F7C2CE0E94E5024B013E
:101310005C0191E1C92E97E2D92E0E944D020197FE
:1013200029F4F1E0CF1AD108C1F7B1CE0E94E5024D
:10133000681979098A099B09693271058105910546
:1013400070F0E22DF0E0E559FE4F808521E030E0BD
:10135000032C01C0220F0A94EAF7822B80873110F8
:101360004DC0239487E0382E81E0E81AF10809F097
:10137000BFCF60917301709174017627672776273C
:1013800090E080E00E94960C2DEC3CEC4CEC5DE390
:101390000E94D30C60936B0170936C0180936D017C
:1013A00090936E018091750121E030E087FF05C0C8
:1013B0008F77809375012FEF3FEF809175019091AA
:1013C0007601982789279827829FB001839F700D07
:1013D000929F700D112490E080E00E94960C2DECFD
:1013E0003CEC4CEC5DE30E94D30C60936F01709376
:1013F0007001809371019093720149CE3A94B4CFF9
:10140000EF920F931F93CF93DF93E80134E047FDF2
:1014100034E1042E000C550B57FF03C05195419544
:101420005109E32E022F242FAE010E944F0ACE0154
:10143000DF91CF911F910F91EF900895BB272A3034
:1014400051F4992342F4BDE2909580957095619591
:101450007F4F8F4F9F4F0C942E0ABB27FA01A62F68
:101460006217710581059105330B30FB66F0AA27E1
:10147000660F771F881F991FAA1FA21710F0A21BC3
:1014800063953850A9F7A05DAA3308F0A95DA19330
:1014900036F7B111B1931082CA010C94860CA9E001
:1014A000B0E0E5E5FAE00C94970D6A01F22EB02E5B
:1014B000102FFBE3AF2EA01608F41BE31F5F012FD4
:1014C00027E0AE014F5F5F4F0E94AE0BBC018981E8
:1014D000982F9970913009F43FC09BE2E1FC04C061
:1014E0009E2D9170E0FC3AC05E2D5071E82FE8709F
:1014F00083FF46C084E0911101C083E0EF2DE81B1B
:101500008F1508F0E0E0D6018E2F20E2552351F12F
:10151000992329F0D6019C93C60101966C0196018E
:101520002D5F3F4FE2FE24C08EE4D6018C9391E400
:1015300011969C93119712968C93D9018E2F90E25D
:1015400081111BC0E20FF32FF11D10828EEF9FEF70
:101550002996ECE00C94B30D9DE2C6CF90E2C4CF87
:101560002D9381508111FCCFCE0ED11CE0E0D0CF65
:101570008EE6D6018C9391E6DBCF9D938150E0CF30
:10158000482F447082FF3DC084E0911101C083E088
:101590008F1510F4EF2DE81BD6018E2F20E2552376
:1015A00009F1992329F0D6019C93C60101966C019B
:1015B00096012D5F3F4FE2FE1BC089E4D6018C935C
:1015C0008EE411968C93119786E412968C93D90130
:1015D0008E2F90E2882309F4B5CF9D938150FACFE6
:1015E0002D9381508111FCCFCE0ED11CE0E0D9CFDC
:1015F00089E6D6018C938EE611968C93119786E638
:10160000E4CF9B0177FF02C030E020E0A1E0B0E032
:10161000911102C0B0E0A0E0F9013196AE0FBF1FFA
:101620008B2C912CBB2009F461C05401EFEFAE1A52
:10163000BE0AAA0DBB1DFA161B0619F014F04F2D99
:101640004A1B511188C0E3FC59C07601A42FB0E2B7
:10165000A1114FC0C40ED11C992309F45BC040E016
:10166000D6011196F60190836D01552309F448C007
:10167000012F060F9A81582F507184FF03C09133B8
:1016800009F4015010160CF047C0093008F008E0CA
:10169000EEE2FE2E5B01A01AB108850191948194BF
:1016A00091082F3F320729F4D601FC92F6013196BA
:1016B0006F016217730794F1021713077CF5DB01C2
:1016C000A21BB30BAA24A394B12CAC0EBD1EAA0D71
:1016D000BB1D11968C9121503109D6011196281508
:1016E0003905F4F0F60180836D01DBCFB12CA12C1C
:1016F000A0CFF701B1937F01A150AACF9111B0CF34
:10170000D601942F50E302C05D9391509111FCCF0C
:10171000C40ED11C40E0ACCF01E0BACF80E3DBCFF8
:101720006217730731F4963388F4953311F4552317
:1017300069F0F6018083FD01842F90E2811108C0D9
:10174000A40FB11D1C9290E080E002CF81E3F1CFA5
:1017500091938150F3CF911183CF8ACF283008F035
:1017600027E03327DA01990F311D87FD916000963C
:101770006105710539F432602E5F3D9330E32A959F
:10178000E1F708959F3F30F080387105610509F059
:101790003C5F3C5F3D93913008F08068911DDF9382
:1017A000CF931F930F93FF92EF92192F987F9695E7
:1017B000E92F96959695E90FFF27EE53FF4F99274E
:1017C0003327EE24FF24A701E7010590089407942E
:1017D00028F4360FE71EF81E491F511D660F771FAC
:1017E000881F991F0694A1F70590079428F4E70E27
:1017F000F81E491F561FC11D770F881F991F661FAE
:101800000694A1F70590079428F4F80E491F561F77
:10181000C71FD11D880F991F661F771F0694A1F758
:101820000590079420F4490F561FC71FD81F990F22
:10183000661F771F881F0694A9F78491109517706B
:1018400041F0D695C79557954795F794E7941A9523
:10185000C1F7E8E6F0E0689415901591359165912F
:10186000959105907FE27395E118F10A430B560BB1
:10187000C90BD009C0F7E10CF11E431F561FC91F49
:10188000D01D7EF4703311F48A95E6CFE8940150B0
:1018900030F0080F0AF40027021708F4202F2395D0
:1018A000022F7A3328F079E37D932A95E9F710C067
:1018B0007D932A9589F606949795679537951795A0
:1018C0001794E118F10A430B560BC90BD00998F095
:1018D00023957E9173957A3308F070E37C932013FF
:1018E000B8F77E9170617D9330F0839571E37D93BD
:1018F00070E32A95E1F71124EF90FF900F911F916B
:10190000CF91DF91992787FD90950895DC01FC0127
:10191000672F71917723E1F7329704C07C916D9323
:1019200070836291AE17BF07C8F30895E89409C0A9
:1019300097FB3EF490958095709561957F4F8F4F02
:101940009F4F9923A9F0F92F96E9BB279395F69518
:10195000879577956795B795F111F8CFFAF4BB0F96
:1019600011F460FF1BC06F5F7F4F8F4F9F4F16C0FA
:10197000882311F096E911C0772321F09EE8872F84
:10198000762F05C0662371F096E8862F70E060E040
:101990002AF09A95660F771F881FDAF7880F9695B9
:1019A000879597F908950E94E60C0C94570D0E94B4
:1019B000490D38F00E94500D20F0952311F00C9441
:1019C000400D0C94460D11240C948B0D0E94680D53
:1019D00070F3959FC1F3950F50E0551F629FF00182
:1019E000729FBB27F00DB11D639FAA27F00DB11D9B
:1019F000AA1F649F6627B00DA11D661F829F222724
:101A0000B00DA11D621F739FB00DA11D621F839FAA
:101A1000A00D611D221F749F3327A00D611D231F80
:101A2000849F600D211D822F762F6A2F11249F57CE
:101A300050409AF0F1F088234AF0EE0FFF1FBB1FD1
:101A4000661F771F881F91505040A9F79E3F510590
:101A500080F00C94400D0C948B0D5F3FE4F3983EA6
:101A6000D4F3869577956795B795F795E7959F5F3A
:101A7000C1F7FE2B880F911D9695879597F90895CC
:101A800097F99F6780E870E060E008959FEF80EC31
:101A9000089500240A9416161706180609060895D4
:101AA00000240A9412161306140605060895092E3A
:101AB0000394000C11F4882352F0BB0F40F4BF2BA9
:101AC00011F460FF04C06F5F7F4F8F4F9F4F0895E9
:101AD00057FD9058440F551F59F05F3F71F04795DF
:101AE000880F97FB991F61F09F3F79F087950895C4
:101AF000121613061406551FF2CF4695F1DF08C0E3
:101B0000161617061806991FF1CF869571056105FF
:101B100008940895E894BB2766277727CB0197F9A7
:101B200008952F923F924F925F926F927F928F9281
:101B30009F92AF92BF92CF92DF92EF92FF920F935C
:101B40001F93CF93DF93CDB7DEB7CA1BDB0B0FB666
:101B5000F894DEBF0FBECDBF09942A883988488823
:101B60005F846E847D848C849B84AA84B984C884B9
:101B7000DF80EE80FD800C811B81AA81B981CE0FB0
:101B8000D11D0FB6F894DEBF0FBECDBFED01089595
:101B90000E94CF0D6894B1110C948B0D08950E9492
:101BA000700D88F09F5798F0B92F9927B751B0F072
:101BB000E1F0660F771F881F991F1AF0BA95C9F7D1
:101BC00014C0B13091F00E948A0DB1E008950C94D8
:101BD0008A0D672F782F8827B85F39F0B93FCCF38B
:101BE000869577956795B395D9F73EF4909580954E
:101BF000709561957F4F8F4F9F4F0895EE0FFF1F98
:101C00000590F491E02D09940F931F93CF93DF93E8
:101C10008230910510F482E090E0E0912F02F09183
:101C2000300230E020E0B0E0A0E0309799F42115D8
:101C3000310509F44AC0281B390B24303105D8F589
:101C40008A819B816115710589F1FB0193838283F0
:101C5000FE0111C04081518102811381481759074B
:101C6000E0F04817590799F4109761F012960C9319
:101C7000129713961C933296CF01DF91CF911F914B
:101C80000F91089500932F0210933002F4CF211585
:101C9000310551F04217530738F0A901DB019A01D1
:101CA000BD01DF01F801C1CFEF01F9CF9093300200
:101CB00080932F02CDCFFE01E20FF31F819391930A
:101CC0002250310939832883D7CF20912D023091BA
:101CD0002E02232B41F42091020130910301309315
:101CE0002E0220932D022091000130910101211537
:101CF000310541F42DB73EB74091040150910501E3
:101D0000241B350BE0912D02F0912E02E217F30710
:101D1000A0F42E1B3F0B2817390778F0AC014E5F5B
:101D20005F4F2417350748F04E0F5F1F50932E0268
:101D300040932D02819391939FCFF0E0E0E09CCF00
:101D4000CF93DF930097E9F0FC0132971382128260
:101D5000A0912F02B0913002ED0130E020E0109709
:101D6000A1F420813181820F931F20912D023091A7
:101D70002E022817390709F061C0F0932E02E09374
:101D80002D02DF91CF910895EA01CE17DF07E8F524
:101D90004A815B819E0141155105B1F7E901FB8341
:101DA000EA8349915991C40FD51FEC17FD0761F4DF
:101DB000808191810296840F951FE9019983888320
:101DC000828193819B838A83F0E0E0E012968D917B
:101DD0009C9113970097B9F52D913C911197CD01E6
:101DE0000296820F931F20912D0230912E02281708
:101DF000390739F6309751F51092300210922F02C0
:101E0000B0932E02A0932D02BCCFD383C283408116
:101E10005181840F951FC817D90761F44E5F5F4F3A
:101E200088819981480F591F518340838A819B8102
:101E3000938382832115310509F0B0CFF0933002EE
:101E4000E0932F029ECFFD01DC01C0CF13821282EE
:101E5000D7CFB0E0A0E0EFE2FFE00C94930D8C014F
:101E6000009751F4CB010E94040E8C01C801CDB73C
:101E7000DEB7E0E10C94AF0DFC01E60FF71F9C010B
:101E800022503109E217F30708F49DC0D901CD9122
:101E9000DC911197C617D70798F0C530D10530F3FC
:101EA000CE0104978617970708F3C61BD70B229716
:101EB000C193D1936D937C93CF010E94A00ED6CF96
:101EC0005B01AC1ABD0A4C018C0E9D1EA0912F0225
:101ED000B0913002512C412CF12CE12C109731F5AE
:101EE00080912D0290912E028815990509F05CC011
:101EF0004616570608F058C08091000190910101E4
:101F0000009741F48DB79EB74091040150910501AF
:101F1000841B950BE817F90708F055C0F0932E02C3
:101F2000E0932D02F90171836083A0CF8D919C9184
:101F3000119712966C90129713967C901397A81590
:101F4000B90559F56C0142E0C40ED11CCA14DB047A
:101F500020F1AC014A195B09DA011296159780F05D
:101F60006282738251834083D9016D937C93E11423
:101F7000F10471F0D7011396FC93EE93129776CF8C
:101F800022968C0F9D1FF90191838083F301EFCF7F
:101F9000F0933002E0932F0269CF4816590608F4F7
:101FA0002C017D01D3019ACFCB010E94040E7C014C
:101FB000009749F0AE01B8010E94E60FC8010E94E7
:101FC000A00E870153CF10E000E050CFFB01DC01F1
:101FD00002C001900D9241505040D8F70895FB0186
:101FE000DC0101900D920020E1F70895F894FFCFF5
:101FF00000003102800000000000B7011701440119
:10200000040275015301670100000000AA041701D2
:102010003D033C0344697374616E6365203A20009C
:10202000434D0054656D7020202020203A2000434D
:102030000048756D6964697479203A200025004C68
:1020400055582020202020203A2000206C78002C99
:0220500000008E
:107E0000112484B714BE81FFF0D085E080938100F7
:107E100082E08093C00088E18093C10086E0809377
:107E2000C20080E18093C4008EE0C9D0259A86E02C
:107E300020E33CEF91E0309385002093840096BBD3
:107E4000B09BFECF1D9AA8958150A9F7CC24DD24C4
:107E500088248394B5E0AB2EA1E19A2EF3E0BF2EE7
:107E6000A2D0813461F49FD0082FAFD0023811F036
:107E7000013811F484E001C083E08DD089C08234E0
:107E800011F484E103C0853419F485E0A6D080C0E4
:107E9000853579F488D0E82EFF2485D0082F10E0AE
:107EA000102F00270E291F29000F111F8ED06801E7
:107EB0006FC0863521F484E090D080E0DECF843638
:107EC00009F040C070D06FD0082F6DD080E0C81688
:107ED00080E7D80618F4F601B7BEE895C0E0D1E017
:107EE00062D089930C17E1F7F0E0CF16F0E7DF06D8
:107EF00018F0F601B7BEE89568D007B600FCFDCFD4
:107F0000A601A0E0B1E02C9130E011968C91119780
:107F100090E0982F8827822B932B1296FA010C0160
:107F200087BEE89511244E5F5F4FF1E0A038BF0790
:107F300051F7F601A7BEE89507B600FCFDCF97BE46
:107F4000E89526C08437B1F42ED02DD0F82E2BD052
:107F50003CD0F601EF2C8F010F5F1F4F84911BD097
:107F6000EA94F801C1F70894C11CD11CFA94CF0C13
:107F7000D11C0EC0853739F428D08EE10CD085E9AC
:107F80000AD08FE07ACF813511F488E018D01DD067
:107F900080E101D065CF982F8091C00085FFFCCF94
:107FA0009093C60008958091C00087FFFCCF809118
:107FB000C00084FD01C0A8958091C6000895E0E648
:107FC000F0E098E1908380830895EDDF803219F02E
:107FD00088E0F5DFFFCF84E1DECF1F93182FE3DFCA
:107FE0001150E9F7F2DF1F91089580E0E8DFEE27F6
:047FF000FF270994CA
:027FFE00040479
:00000001FF
